:020000040800F2
:10000000A8040020AD0100085B18000827170008AD
:1000100059180008FF080008151D0008000000001E
:10002000000000000000000000000000831800082D
:100030000109000800000000811800088518000868
:10004000C7010008C7010008C7010008C701000870
:10005000C7010008C7010008C7010008C701000860
:10006000C7010008C7010008C7010008C701000850
:10007000C7010008C7010008C7010008C701000840
:10008000C7010008C7010008C70100080000000000
:10009000000000000000000000000000C701000890
:1000A000C7010008C7010008C7010008C701000810
:1000B000C7010008C7010008C7010008C701000800
:1000C000C7010008C7010008C7010008C7010008F0
:1000D000C7010008C7010008C701000800000000B0
:1000E000C7010008C7010008C701000800000000A0
:1000F000000000000000000000000000C701000830
:1001000000000000C7010008C7010008C70100087F
:1001100000000000000000000000000000000000DF
:10012000C7010008C7010008C7010008C70100088F
:10013000C7010008000000000000000000000000EF
:10014000000000000000000000000000C7010008DF
:10015000C7010008C7010008C7010008C70100085F
:10016000C7010008C70100080000000000000000EF
:10017000000000000000000000000000000000007F
:1001800000000000C701000800000000000000009F
:10019000C7010008DFF810D000F062FB00480047FC
:1001A00075310008AFF30080A8040020064880479E
:1001B00006480047FEE7FEE7FEE7FEE7FEE7FEE74C
:1001C000FEE7FEE7FEE7FEE71D19000895010008BF
:1001D0002DE9F05F0546002092469B46884606467C
:1001E000814640241BE0284641464746224600F00F
:1001F0009FF953465A46C01A914110D311461846EA
:10020000224600F086F92D1A67EB01084F46224678
:100210000120002100F07DF917EB00094E41201E5E
:10022000A4F10104DFDC484631462A464346BDE8D6
:10023000F09FD2B201E000F8012B491EFBD27047BB
:100240000022F6E710B513460A4604461946FFF7A2
:10025000F0FF204610BD2DE9FE4F804681EA0300E5
:10026000C00F0C46009021F0004123F00045B8EB90
:100270000200A94105D24046214690461C460B4645
:10028000024623F00040104347D0270DC7F30A0071
:10029000C3F30A510290401A019040286BDAC3F36D
:1002A000130040F4801B0098924620B10023D2EB4B
:1002B000030A63EB0B0B01985946C0F1400250460C
:1002C00000F027F906460D4650465946019A00F0BF
:1002D0003FF910EB08006141002487EA115284EADB
:1002E000E7731A4340D0009A62B3019A012A4FEA99
:1002F000075215DC001B61EB02014FF0004202EADD
:100300000752CDE90042001C41F5801132462B46D0
:1003100000F076F903B0BDE8F08F40462146F9E7DA
:10032000001B61EB0201001C41F5801300185B41CA
:100330002018A2F5001747EB030140EAD570B61963
:100340006D4111E06D084FEA360645EAC0754FEA87
:100350000752001B61EB0201001C41F580114908A6
:100360004FEA30000019514132462B4603B0BDE838
:10037000F04F00F036B90098012240000023D0EB86
:10038000020263EBE073009821464FEAE074B8EB99
:10039000000061EB0401E9E783F000435BE781F0D3
:1003A000004158E72DE9FE4F81EA030404F00044C0
:1003B00021F0004100944FF0000B23F0004350EA7D
:1003C00001045ED052EA03045BD0C3F30A54C1F3C4
:1003D0000A552C44A4F2F3340194A0FB0254C1F357
:1003E000130141F48011C3F3130343F4801301FBA1
:1003F000024400FB034E840A970A44EA815447EA08
:100400008357A4FB076802958D0A05FB07854FEA11
:10041000932C04FB0C542705029D4FEA065847EA2B
:100420001637B5EB08056EEB070C870E920E47EA00
:10043000811742EA8312A7FB0201B6EB0B0164EBC2
:1004400000042B0D43EA0C335E1844EB1C50DA46D3
:100450005146E7FB0201C5F313044FEA0B3343EAAD
:1004600014534FEA0432019C43EA0603A4F10C043E
:100470000294009CCDE900B400F0C2F803B0BDE8DE
:10048000F08F00200146F9E700F0004230F0004014
:100490000AD0C10D01F56071C0F3160042EA0151A6
:1004A000C20840071143704700200146704701F021
:1004B000004330B421F0004150EA010206D00A0D99
:1004C000A2F56072C1F31301002A02DC30BC0020E7
:1004D0007047440F44EAC104C100E01830BC00EB8F
:1004E000C25000F047B830B50B460146002020222C
:1004F000012409E021FA02F59D4205D303FA02F531
:10050000491B04FA02F52844151EA2F10102F1DC90
:1005100030BD202A04DB203A00FA02F100207047A7
:100520009140C2F1200320FA03F319439040704731
:10053000202A04DB203A21FA02F00021704721FA38
:1005400002F3D040C2F1200291400843194670479F
:10055000202A06DBCB17203A41FA02F043EAE07387
:1005600006E041FA02F3D040C2F120029140084374
:10057000194670470029A8BF7047401C490008BFB2
:1005800020F00100704710B4B0FA80FC00FA0CF0C3
:1005900050EA010404BF10BC704749B1CCF12004FB
:1005A00021FA04F411FA0CF118BF01212143084388
:1005B000A3EB0C01CB1D4FEA00614FEA102042BFB4
:1005C000002010BC704700EBC35010440029A4BFAA
:1005D00010BC7047401C490008BF20F0010010BC4F
:1005E000704710B5141E73F1000408DA401C41F185
:1005F000000192185B411A4301D120F0010010BDA7
:100600002DE9F04D92469B4611B1B1FA81F202E01C
:10061000B0FA80F220329046FFF77BFF04460F4687
:1006200040EA0A0041EA0B0153465A46084313D0F8
:10063000114653EA010019D0C8F140025046FFF7B5
:1006400077FF05460E46504659464246FFF761FF82
:10065000084305D0012004E020463946BDE8F08D6E
:100660000020054346EAE0762C4337430A986305A9
:10067000E40AA0EB08000022FD0A44EA47540A30CD
:1006800002D500200146E9E7010510196941DDE9BD
:10069000084500196941BDE8F04DA2E72DE9F04D8C
:1006A00081EA030404F0004B21F0004514464FF0AA
:1006B000000A23F0004150EA050220D054EA01026A
:1006C0001DD0C5F30A570246C5F31303C1F3130047
:1006D000C1F30A5640F4801543F48013A7EB0608D3
:1006E000101BD64608F2FD3873EB050002D308F163
:1006F000010801E092185B41B8F1000F03DA002015
:100700000146BDE8F08D00204FF480110646844676
:100710000EE0171B73EB050705D3121B63EB0503F4
:1007200006434CEA010C49084FEA300092185B413D
:1007300050EA0107EDD152EA030012D082EA040028
:1007400083EA0501084305D0101BAB4106D2012204
:10075000002306E000224FF0004302E06FF00102A8
:1007600053101AEB06004CEB085110EB0A0041EB5A
:100770000B01BDE8F04DFFF734BF2DE9FE4FC3F389
:100780000A5701F000450024C1F30A56C3F31303CE
:10079000C1F3130143F4801312EB020AA64641F49D
:1007A0008011009543EB030CA7F1010B16E0B0EBB1
:1007B0000A0061EB0C01071E71F1000707DA4FF028
:1007C0000008D0EB080085F0004568EB0101171A1E
:1007D00073EB0107EBD3761E001849415E45F6DA4C
:1007E00050EA010209D0CDE900E500221346029645
:1007F000FFF706FF03B0BDE8F08F20460099F9E748
:10080000C1F30A52C1F3130140F2FF3341F48011E6
:100810009A4202DA00200146704740F233439A427E
:10082000A2F2334202DC5242FFF782BEFFF771BEF2
:1008300030B5041E71F1000404DB4FF00044404267
:1008400064EB0101141E73F1000405DB1C464FF03C
:100850000043524263EB0403994208BF904230BD0B
:10086000064C074D06E0E06840F0010394E80700FD
:1008700098471034AC42F6D3FFF790FC08360008D6
:10088000283600080EB5C10F80EAE0700844CA0798
:10089000002140F233438DE80E000A460B46FFF775
:1008A000AFFE03B000BD0EB540F23341029100210E
:1008B000CDE900110A460B46FFF7A2FE03B000BDCA
:1008C00070B5C1F30A5201F000450024C1F31301D1
:1008D00040F2FF3341F480119A4201DA002070BDEA
:1008E00040F233439A42A2F2334203DC5242FFF712
:1008F0001FFE00E090402C43F1D0404270BDFEE767
:10090000704772B6FEE700002DE9F84FDFF8B8A196
:100910000022012403254FF00F090AF1040BAAF16C
:10092000040E00BF0B6804FA02F63340B34273D1E1
:100930000F7907F00307012F01D0022F16D1876826
:100940004FEA420805FA08FC27EA0C07D1F80CC068
:100950000CFA08FC4CEA070CC0F808C04768B7431B
:100960000E79C6F3001696403E4346600E79F64374
:10097000B6070DD0C768560005FA06FC27EA0C0733
:10098000D1F808C00CFA06FC4CEA070CC0F80CC001
:100990000E7906F00306022E10D1D60800EB860869
:1009A000D8F8206057074FEAD76C09FA0CF7BE4316
:1009B0000F6907FA0CF73743C8F8207006684FEA4A
:1009C000420C05FA0CF7BE430F7907F0030707FA4C
:1009D0000CF7374307604E6816F4403F6DD03B4E2E
:1009E000376847F480473760366822F0030706F41B
:1009F00080460096364E07EB060CDCF80868970731
:100A00003F0F09FA07F826EA0806DFF8C8804045D4
:100A100003D14FF000081EE04FE0DFF8BC804045F6
:100A200002D14FF0010816E0DFF8B080404502D156
:100A30004FF002080FE0DFF8A880404502D14FF0E8
:100A4000030808E0DFF89C80404502D14FF004081D
:100A500001E04FF0070808FA07F848EA0608CCF862
:100A60000888DAF800605746D1F804C09E435FEA70
:100A7000CC2C00D51E433E60DBF800605F46D1F809
:100A800004C09E435FEA8C2C00D51E433E60DEF816
:100A900000607746D1F804C09E435FEA8C3C00D5E5
:100AA0001E433E60084F083F3E68D1F804C09E4395
:100AB0005FEACC3C00D51E433E60521C102AFFF476
:100AC00031AFBDE8F88F0000083C014044380240D7
:100AD00000300140000002400004024000080240D3
:100AE000000C02400010024001488068704700007E
:100AF000000000200248816802781144816070473C
:100B0000000000200B4810B5016841F4007101603D
:100B1000016841F480610160016841F48071016005
:100B2000032000F061F80F2000F006F800F024F830
:100B3000002010BD003C024070B50D4D04464FF43E
:100B40007A712878B1FBF0F00A490968B1FBF0F03E
:100B500000F0FEFA48B9102C07D200222146501EA0
:100B600000F022F800206C6070BD012070BD000014
:100B7000000000200C0000200A4808B5016841F47C
:100B800080410160006800F4804000900548001F2B
:100B9000016841F080510160006800F080500090D1
:100BA00008BD000044380240F0B40E4B1B680C46F0
:100BB000C3F30223C3F10705042D00D90425191D31
:100BC000072901D2002300E0DB1E012606FA05F109
:100BD000491E214099409E40761E16403143F0BC8C
:100BE00001F0C2B80CED00E0064900F00702086809
:100BF0004FF6FF03184040EA0220034A1043086002
:100C0000704700000CED00E00000FA052DE9F04708
:100C10000E46050065D0DFF81481D8F80000F7B261
:100C200000F00700B04207D288F80070D8F8000042
:100C300000F00700B04254D128683D4C810712D51E
:100C4000400703D5206840F4E05020602878000772
:100C500003D5206840F4604020602068A96820F037
:100C6000F000084320602878C0072DD0304968681C
:100C70000839012812D0022813D0032811D009689E
:100C8000890700292DDA216821F003010143216041
:100C9000FFF72AFF814641F2883A0EE0096889038E
:100CA000EFE709688901ECE7FFF71EFFA0EB0901F8
:100CB000514502D90320BDE8F0872068696800F03B
:100CC0000C00B0EB810FEFD1D8F80010404601F0D6
:100CD0000701B14207D90770006800F00700B04271
:100CE00001D00120E7E72878400705D52068E968AA
:100CF00020F4E050084320602878000706D52068DB
:100D0000296920F4604040EAC100206000F038F812
:100D10002168084AC1F30311515CC84006490860C4
:100D200006480068FFF708FF0020C4E7003C0240C7
:100D300008380240CC3400080C00002004000020D9
:100D40000448054900680968044AC1F38221515CDE
:100D5000C84070470C00002008380240DC3400080E
:100D60000448054900680968044AC1F34231515CEE
:100D7000C84070470C00002008380240DC340008EE
:100D8000154810B5006810F00C02144813D014492F
:100D9000042A0FD0082A0ED10F4C241F2268236882
:100DA00002F03F025B0207D52068C0F38810A0FB69
:100DB000010106E0084610BD2168C1F38811A1FBBE
:100DC00000010023FFF704FA2168C1F30141491C27
:100DD0004900B0FBF1F010BD083802400024F400D7
:100DE00040787D012DE9F84F04006ED02078DFF8BF
:100DF0004C93C007A9F104054AD009F10400016829
:100E0000C1F38101012908D00068C0F381000228E4
:100E10000AD1D9F80000400206D52868800337D5EA
:100E200060680028E1D033E06068B0F5803F10D002
:100E3000B0F5A02F286810D020F4803028602868F2
:100E400020F4802028606068A8B1FFF74DFE0646B8
:100E50000DE0286840F48030F4E740F480202860FA
:100E6000F7E700BFFFF740FE801B642873D82868AF
:100E70008003F7D50CE0FFF737FE064605E000BF1C
:100E8000FFF732FE801B6428F0D828688003F7D46F
:100E90002078DFF8AC8280074FF0000A3ED5A748E3
:100EA000001D016811F00C0F08D00068C0F381002C
:100EB00002280BD1D9F80000400207D42868800727
:100EC00016D5E068012800D112E033E1E068B8B13E
:100ED0000120C8F80000FFF707FE064605E000BF46
:100EE000FFF702FE801B0228C0D828688007F7D5CC
:100EF0002868216920F0F80040EAC10028600DE070
:100F0000C8F800A0FFF7F0FD064604E0FFF7ECFD8F
:100F1000801B02281FD828688007F7D42078000794
:100F200022D5864F87486169703771B10121016010
:100F3000FFF7DAFD064604E0FFF7D6FD801B022826
:100F400009D838688007F7D50EE0C0F800A0FFF791
:100F5000CBFD064605E082E0FFF7C6FD801B0228B8
:100F60007DD838688007F7D42078400768D5DFF847
:100F7000CCB100270BF13C0BDBF80000C0000BD418
:100F8000DBF8001041F08051CBF80010DBF80000D6
:100F9000012700F0805000906B4E3068C00510D4DF
:100FA000306840F480703060FFF79EFD009005E0EF
:100FB000FFF79AFD0099401A022850D83068C00502
:100FC000F6D55E4EA0686C3601280FD00528306833
:100FD00010D020F001003060306820F00400306054
:100FE000A068B8B1FFF780FD00900FE0306840F0D6
:100FF0000100F4E740F004003060F7E7FFF774FD0C
:101000000099411A41F28830814266D830688007E1
:10101000F4D50EE0FFF768FD009007E0FFF764FDF0
:101020000099411A41F28830814256D830688007D1
:10103000F4D42FB1DBF8001021F08051CBF8001070
:10104000A069C8B33D49091D0968C1F3810102299E
:101050004AD00228504607D0C8F8600000E03CE0C3
:10106000FFF742FD04463BE04746C8F86000FFF743
:101070003BFD064605E000BFFFF736FD801B02285A
:101080002BD828688001F7D4D4E907010843A16A66
:101090002E4A490802EB0141626A41EA8211084383
:1010A00094F82C1040EA0161C9F80010012038665C
:1010B000FFF71AFD044606E03EE000BFFFF714FD0F
:1010C000001B022809D828688001F7D534E000BF4A
:1010D000FFF70AFD001B022802D90320BDE8F88FA4
:1010E00028688001F4D427E00128F7D0D9F800005F
:1010F000E26900F4800191421CD1226A00F03F01B4
:10110000914217D147F6C071626A0140B1EB821F6C
:1011100010D1A26A4FF0FF3300F4403103EB5202CA
:10112000B1EB024F06D194F82C1000F07060B0EBD8
:10113000016F01D00120D1E70020CFE70438024041
:1011400000004742800E4742007000400000FFFF51
:1011500010B5401EB0F1807F01D3012010BD4FF0CB
:10116000E02460610F21601700F0FEFD0020A06107
:1011700007202061002010BD70B590F83C20012AA6
:101180002CD0012480F83C40022280F83D200368E6
:101190005A689D6822F070060A6832435A60104B04
:1011A00002689A420ED0B2F1804F0BD00D4B9A429A
:1011B00008D00D4B9A4205D00C4B9A4202D00C4BF2
:1011C0009A4204D1496825F080031943916080F860
:1011D0003D40002180F83C10084670BD022070BDE3
:1011E000000001400004004000080040000C0040E6
:1011F0000040014010B5040003D094F83D0010B148
:1012000007E0012010BD002084F83C00204600F0DB
:101210001FF8022084F83D00211D206800F086FBA5
:10122000012084F8460084F83E0084F83F0084F8EA
:10123000400084F8410084F8420084F8430084F8B8
:10124000440084F8450084F83D00002010BD0000F3
:1012500008B500680649884208D10648016841F08F
:1012600002010160006800F00200009008BD00006B
:10127000000400404038024070B5044690F83C003D
:101280000025012817D0012684F83C60022084F84C
:101290003D002068826822F0770222F47F4282605B
:1012A0000868502838D00DDC20284FD005DC90B3DA
:1012B000102811D14AE0022070BD302846D04028C5
:1012C0000AD13BE060282FD070280DD0B0F5805FA8
:1012D00003D0B0F5005F12D0012584F83D600020F6
:1012E00084F83C00284670BDCB68D1E90121206814
:1012F00000F075FB2068816841F0770109E0CB6858
:10130000D1E90121206800F06AFB2068816841F47E
:1013100080418160E1E719E0CA684968206800F00F
:1013200013FC5021206806E0CA684968206800F074
:101330001CFC6021206800F05CFBCEE7CA684968AD
:10134000206800F001FC40212068F4E72268014693
:101350001046F0E730B587B0044614216846FEF722
:101360006FFF16492068884226D11548002401687D
:1013700041F001010160016801F00101059101687E
:1013800041F0020101600068022500F002000590B2
:10139000C0200090CDE9015469460A48CDE90345D3
:1013A000FFF7B2FA01200090CDE9015469460648E2
:1013B000CDE90345FFF7A8FA07B030BD00040040AF
:1013C00030380240000002400004024070B504467C
:1013D00090F83C0000260D4601280FD0012084F82B
:1013E0003C006AB1042A1DD0082A2FD00C2A3FD015
:1013F0000126002084F83C00304670BD022070BDFC
:10140000206800F0FFFA2068816941F008018161DD
:101410002068816921F004018161206881692A695D
:10142000114311E0206800F015FB2068816941F448
:10143000006181612068816921F480618161206897
:1014400081692A6941EA02218161D2E7206800F0BE
:101450002DFB2068C16941F00801C1612068C169A4
:1014600021F00401C1612068C1692A69114311E0BA
:10147000206800F047FB2068C16941F40061C16148
:101480002068C16921F48061C1612068C1692A694D
:1014900041EA0221C161ACE710B5040003D094F821
:1014A0003D0010B107E0012010BD002084F83C0091
:1014B000204600F01EF8022084F83D00211D20681F
:1014C00000F034FA012084F8460084F83E0084F8E5
:1014D0003F0084F8400084F8410084F8420084F81A
:1014E000430084F8440084F8450084F83D0000205F
:1014F00010BD704710B50446022249B104290ED030
:10150000082913D094F84100012816D0012010BDFD
:1015100094F83E000128F9D184F83E200FE094F8B9
:101520003F000128F2D184F83F2008E094F8400001
:101530000128EBD184F8402001E084F84120012209
:10154000206800F03FFA12492068884203D1426CBB
:1015500042F400424264206888420ED0B0F1804FCD
:101560000BD00C49884208D00B49884205D00B4962
:10157000884202D00A49884204D1816801F00701FB
:10158000062903D0016841F001010160002010BD6F
:10159000000001400004004000080040000C004032
:1015A0000040014070B5040004D094F83D000025CF
:1015B00010B106E0012070BD84F83C50204600F0D8
:1015C00023F8242084F83D002068C16821F40051EC
:1015D000C160204600F0DCFA2068016921F49041E6
:1015E00001612068416921F02A0141612068C168D8
:1015F00041F40051C1602564202084F83D0084F846
:101600003E00002070BD000010B586B004461421D5
:101610006846FEF715FE14492068884221D1134818
:101620000021026842F010020260006800F0100021
:1016300005900E481438026842F00102026000680A
:1016400000F0010005904FF4C06000900220CDE949
:101650000101032003900720049069460448FFF726
:1016600053F906B010BD000000100140443802409C
:10167000000002402DE9F843044690F83D001F4663
:1016800016460D4620284CD1C5B1BEB194F83C0099
:10169000012846D0012084F83C004FF00008C4F82F
:1016A0004080212084F83D00FFF71EFAA684814681
:1016B000E684A068B0F5805F03D004E00120BDE8B7
:1016C000F883206928B12E465FF0000584F83C803D
:1016D0000EE00026FAE78021204600F0DFFAA0B9EC
:1016E000AEB116F8010B21684860E08C401EE08422
:1016F000E08C4B464FF0000200970028EBD14FF0F2
:101700004001204600F0CAFA30B10320D7E735F88F
:10171000020BC0F30800E6E7202084F83D0000201B
:10172000CDE70220CBE7FEE70D4808B5016841F0A0
:1017300080010160016801F080010091016841F0C1
:1017400001010160016801F001010091016841F0AF
:1017500002010160006800F00200009008BD000076
:101760003038024010B58EB00024079408940994D4
:101770000A940B941C2168460C94FEF761FD2748DF
:1017800025490160092141602021816040F2171143
:10179000C0E9031480218161FFF72CFD08B1FFF738
:1017A000B0F84FF48050079007A91C48FFF764FD7C
:1017B00008B1FFF7A6F81948FFF76EFE08B1FFF76A
:1017C000A0F80B940BA915480C94FFF7D5FC08B1B1
:1017D000FFF797F86020CDE90004029400226946E3
:1017E0000E480494FFF7F2FD08B1FFF78AF80422CF
:1017F00069460A48FFF7EAFD08B1FFF782F80822B8
:1018000069460648FFF7E2FD08B1FFF77AF803489A
:10181000FFF7A0FD0EB010BD00040040180000202E
:101820000C4810B50A4901604FF4E13141600021D4
:1018300081600C22C160C0E904128161C161FFF7BF
:10184000B1FE002803D0BDE81040FFF75AB810BD24
:101850000010014060000020FEE7FEE710B5002107
:101860000648FFF747FE04210448FFF743FEBDE8A2
:10187000104008210148FFF73DBE0000180000207D
:1018800070477047FFF736B930B593B030216846DE
:10189000FEF7D6FC14210CA8FEF7D2FC1D4800244C
:1018A000016841F080510160006800F080501190A3
:1018B0001948016821F4404141F400410160006889
:1018C000022500F440401190012003901020049064
:1018D000009506950820CDE907405420CDE909057B
:1018E00004200B906846FFF77DFA08B172B6FEE758
:1018F0000F20CDE90C054FF48050CDE90E400221B8
:101900000CA81094FFF782F9002801D072B6FEE708
:1019100013B030BD403802400070004002480168FA
:1019200041F470010160704788ED00E0F0B5026895
:101930001D4B1E4C9F031E4D1E4E984207D0B842B1
:1019400005D0A04203D0A84201D0B04204D122F079
:10195000700C4A6842EA0C02984210D0B8420ED08D
:10196000A0420CD0A8420AD0B04208D0124CA042EB
:1019700005D0124CA04202D0114CA04203D122F457
:101980004074CA6822434C6922F0800222430260FC
:101990008A68C2620A688262984201D10969016359
:1019A00001214161F0BD0000000001400004004041
:1019B00000080040000C004000400140004401408D
:1019C0000048014010B501F01F030121046A99404D
:1019D0008C430462016A9A401143016210BD10B544
:1019E000846842EA032224F47F440A43224382604B
:1019F00010BD826822F070020A4342F00701816044
:101A00007047000030B5026A22F001020262026AE9
:101A10004368846924F073050C682C4322F00205A6
:101A20008A682A430A4DA8420BD122F00805CA68E9
:101A300023F440732A434D6922F004021D438B694D
:101A40002B434360846149684163026230BD0000FA
:101A50000000014030B5026A22F010020262026A00
:101A6000436884690D6824F4E64444EA05248D68DB
:101A700022F0200242EA05120B4DA8420ED1CD6899
:101A800022F0800242EA05124D6923F4406343EAE2
:101A900085038D6922F0400243EA85034360846137
:101AA00049688163026230BD0000014030B5026ABE
:101AB00022F480720262036A4268C46923F40073EC
:101AC00024F073050C682C438D6843EA05230C4D04
:101AD000A8420ED1CD6823F4006343EA05234D6983
:101AE00022F4405242EA05128D6923F4806342EAEF
:101AF00005124260C4614968C163036230BD0000E1
:101B00000000014030B5026A22F480520262046A89
:101B10004268C3690D6823F4E64343EA05238D68F0
:101B200024F4005444EA0534064DA84204D14D691A
:101B300022F4804242EA85124260C361496801642E
:101B4000046230BD0000014010B5036A046A24F04D
:101B500001040462846924F0F00444EA021423F0CE
:101B60000A020A438461026210BD10B5036A23F0C1
:101B7000100303628369046A23F4704343EA023268
:101B800024F0A00343EA01118261016210BD00004C
:101B900070B5044600680169E26821F440511143C0
:101BA00001612169A068E269084361691143084342
:101BB0002168CA6849F20C639A430243CA602068EC
:101BC0004169A26921F440711143416131492068A2
:101BD000884202D03049884202D1FFF7C1F801E0C3
:101BE000FFF7AEF8E2690023192164253226B2F529
:101BF000004F626828D0A0FB0101930F9200FEF70E
:101C0000E7FA0146B0FBF5F06FF01802504301EB24
:101C1000800006EB0010B0FBF5F000F0F002B1FB25
:101C2000F5F002EB0012B1FBF5F06FF0180358432A
:101C300001EB800006EB0010B0FBF5F000F00F00A8
:101C400021681044886070BDA0FB010192185B41BF
:101C5000FEF7BEFA0146B0FBF5F00201B1FBF5F06C
:101C60006FF01803584301EB800006EBC000B0FB97
:101C7000F5F000F0F80002EB4002B1FBF5F058433C
:101C800001EB800006EBC000B0FBF5F000F00700B0
:101C9000D6E7000000100140001401402DE9F0419A
:101CA000984617460E460446069D27E0681C25D038
:101CB0002DB1FEF719FFA0EB0800A8421ED920683D
:101CC0000C3050E8001F21F4D07140E80012002AC7
:101CD000F5D12068143050E8001F21F0010140E8E0
:101CE0000012002AF5D1202084F83D0084F83E003F
:101CF000002084F83C000320BDE8F08120680068E3
:101D000036EA000004D00020B842CFD00020F3E72C
:101D10000120F9E7FEE700000FB4054B10B503A959
:101D2000044A029800F08AFE10BC5DF814FB000023
:101D30005D3100081000002003B4019841000098B4
:101D400050EAC12018BF04204A0D18BF40F001001E
:101D500040F2FF72B2EB515F08BF40F00200012871
:101D600008BF052002B070470907090E002804DBF0
:101D700000F1E02080F80014704700F00F0000F13F
:101D8000E02080F8141D704710B52F499FED2C1BE3
:101D90002DED020B84B0059820F000408842D8BF9A
:101DA0009DED040B2DDD2949884209D1049840B9E5
:101DB0004FF0010000F058FD00F026FD06B010BD08
:101DC00005DB9DED040B00F013FD06B010BD684669
:101DD0009DED040B00F024F910F0030004BF9DED0D
:101DE000021B9DED000B0CD001280ED09DED021BB7
:101DF0009DED000B022817D0012000F061FC06B019
:101E000010BD00F029FB06B010BD9DED021B9DED3D
:101E1000000B012000F054FC51EC100B81F000414C
:101E200006B041EC100B10BD00F016FB51EC100B8E
:101E300081F0004106B041EC100B10BD0000000025
:101E40000000000000000000FB21E93F0000F07FDF
:101E500010B52DED040B86B09DED060B10EE100AAB
:101E600010EE901A8DED000B002818BF01200843DA
:101E700020F00040C0F17F6000F1E040C00F21D1B0
:101E80009DED080B10EE101A10EE900A8DED000B70
:101E9000002918BF0121084320F00040C0F17F60F5
:101EA00000F1E040C00F0DD129490798B1EB400F78
:101EB00004BF0698002842D00998400004BF089843
:101EC00000283CD09DED080B53EC102B9DED060B2C
:101ED00051EC100BFEF751FCCDE902019DED020B18
:101EE00040F2FF7110EE900A8DED000B31EA1050B8
:101EF00021D00798039900F0004001F0004188428A
:101F000019D09DED080B8DED040B9DED020B8DEDB1
:101F1000000B10EE900A059961F31E0005909DEDEF
:101F2000041B9DED020B51EC110B53EC102BFEF733
:101F300036FACDE902019DED020B0AB010BD012079
:101F400000F092FC0AB0BDE8104000F05DBC00005B
:101F50000000E0FF0000000010B52F499FED2C1B92
:101F60002DED020B84B0059820F000408842DCBFC4
:101F700000209DED040B32DD2849884209D10498E8
:101F800040B94FF0010000F06FFC00F03DFC06B0DE
:101F900010BD05DB9DED040B00F02AFC06B010BD62
:101FA00068469DED040B00F03BF810F0030011D0E3
:101FB000012818D09DED021B9DED000B02281AD0C0
:101FC00000F04AFA51EC100B81F0004106B041ECF0
:101FD000100B10BD9DED021B9DED000B012000F0CC
:101FE0006FFB06B010BD9DED021B9DED000B00F0D8
:101FF00033FA06B010BD012000F062FB51EC100B6B
:1020000081F0004106B041EC100B10BD0000000053
:102010000000000000000000FB21E93F0000F07F0D
:102020002DE9F14F04462DED020B2DED088B8AB002
:102030009FEDE70B80ED020B139EE74826F000456D
:1020400085420ADC9DED120B002084ED000B0AB0E6
:10205000BDEC088B03B0BDE8F08FE0489FEDE0AB2E
:102060009FEDE1BBA84247DDE14F9FEDE39B9FED74
:10207000E48B9DED120B53EC1A2B51EC100B002E40
:102080001CDDFEF789F941EC100BBD4208D053EC82
:102090001B2B51EC100BFEF77FF9C4E900010BE09C
:1020A00053EC192B51EC100BFEF776F953EC182B6F
:1020B000FEF772F9C4E900010120C8E7FEF7CBF88A
:1020C00041EC100BBD4208D053EC1B2B51EC100B14
:1020D000FEF7C1F8C4E900010BE053EC192B51ECF9
:1020E000100BFEF7B8F853EC182BFEF7B4F8C4E960
:1020F00000014FF0FF30AAE7C348A84279DB9DED0D
:10210000120B51EC100B01F01CF841EC180B9FED79
:10211000C00B53EC102BFEF745F99FEDBF1B53ECA2
:10212000112BFEF798F8FEF7CBFB0746FEF7AAFB4C
:1021300041EC190B53EC1A2BFEF734F953EC182B26
:10214000FEF72DF941EC180B53EC1B2B51EC190B3E
:10215000FEF728F9DFF8C8A241EC100B4FEA15583A
:102160000125FA4453EC102B51EC180BFEF714F92F
:10217000032DC4E900013DD0C1F30A5005EB451120
:10218000A8EB00001139814234DA0AEB051BB0EEEE
:1021900048AA9BED000BF0EE68AA53EC102B51EC13
:1021A000190BFEF7FFF841EC1B0B51EC1A0B53EC2B
:1021B0001B2BFEF7F1F841EC180B51EC1A0B53EC0A
:1021C000182BFEF7E9F853EC1B2BFEF7E5F89BED17
:1021D000020B41EC1A0B53EC102B51EC190BFEF7D0
:1021E000E1F853EC1A2BFEF7D7F841EC100B6D1CFD
:1021F000B8E70EE0002EA8BF3846BFF628AF94ED32
:10220000000B51EC100B81F00041C4E90001784251
:102210001DE7C6F3130040F4801EC6F30A50A0F277
:10222000F530471100F01F05C5F12000DDF848B07A
:1022300008900020069007900520EC467949002D73
:1022400007EB0002794408BF51F8221009D051F879
:10225000223001EB8201AB404A68089922FA01F171
:102260001943A1FB0E26A1FB0B131A449A4234BF5B
:102270000123002303EB06080CEB8003D3E901A63E
:102280000E448E4234BF0121002192448A4411B190
:10229000924502D903E0924501D2012100E00021DC
:1022A000C3E901A641444CF82010011EA0F1010031
:1022B000C4DC029800F10050850F0298DDE9036745
:1022C0008000DDF81480FEF7DDFA41EC1A0B304691
:1022D000FEF7E9FA9FED541B53EC112BFEF762F861
:1022E00041EC1B0B3846FEF7DEFA9FED511B53EC19
:1022F000112BFEF757F841EC180B4046FEF7D3FAC6
:102300009FED4D1B53EC112BFEF74CF841EC190BD4
:1023100051EC180B53EC192BFDF79DFF53EC1B2BC5
:10232000FDF799FF53EC1A2BFDF795FFCDE9080156
:10233000002008909DED080B53EC1A2B51EC100B6C
:10234000FEF72AF853EC1B2BFEF726F853EC182B5C
:10235000FEF722F853EC192BFEF721F89FED381BFE
:1023600053EC112BFEF71EF89FED370B41EC180BC9
:1023700053EC102B9DED080B51EC100BFEF712F8EF
:1023800053EC182BFDF767FF9FED310B41EC180B59
:1023900053EC102B9DED080B51EC100BFEF702F8DF
:1023A00053EC182BFDF757FF41EC100B139810F06E
:1023B000004F06D06D4251EC100B81F0004141EC12
:1023C000100B284684ED000B41E6000000000000E1
:1023D0000000000000000000FB21E93F7CD9024022
:1023E00000004054FB21F93F3163621A61B4D03DD3
:1023F000FB21F93F000000000000601A61B4D03DED
:102400007370032E8A19A33BFB21394100000000A1
:1024100083C8C96D305FE43F000000000000E03F6A
:10242000B213000000130000000000000000103E86
:10243000000000000000103C000000000000103A06
:10244000182D4454FB21F93D3326A611460B113CAF
:1024500000000054FB21F93D10B52DED040B2DEDCE
:10246000088B82B0B0EE419AF0EE619A0B9820F0A2
:1024700000449FED4BABB4F1795F11DA9DED0A0B8F
:1024800051EC100BFEF71CFA002801BFB0EE4A0A0F
:10249000F0EE6A0A02B0BDEC088B04BF04B010BDB8
:1024A0009DED0A0B53EC102B51EC100BFDF77AFF4E
:1024B00041EC180B3C480621B0EE480AF0EE680AE1
:1024C000784400F081F853EC182B51EC100BFDF719
:1024D00069FF9DED0A0B41EC1B0B53EC192B51ECE2
:1024E000100BFDF75FFF41EC190B53EC1B2B51EC6C
:1024F000180BFDF757FF53EC192BFDF74DFF9FED20
:102500002C0B41EC190B53EC102B51EC180BFDF775
:1025100049FF41EC100B2848844210DA53EC192B88
:1025200051EC100BFDF738FF53EC1A2BFDF737FF7A
:1025300041EC100B02B0BDEC088B04B010BD1F487D
:10254000A042BCBF9FED1E1B8DED001B06DBA4F55A
:1025500000100190002000909DED001B51EC100B2D
:1025600053EC112BFDF718FF9DED000B41EC180B00
:1025700053EC102B51EC1A0BFDF70EFF41EC1A0B2C
:1025800053EC192B51EC180BFDF706FF53EC1A2BEB
:10259000FDF705FF41EC100BCCE700000000000048
:1025A000000000000000F03F2410000000000000C8
:1025B000000000000000E03F3333D33F0000E93F5C
:1025C000000000000000D23F70B504462DED028BE4
:1025D0004D1E00EBC500B0EE408AF0EE608A90ED33
:1025E000000B35F0060017D053EC182B51EC100BF4
:1025F000FDF7D8FE41EC100B6D1E04EBC50090ED0D
:10260000001B51EC100B53EC112BFDF724FE41EC99
:10261000100B35F00600E7D1022D36D0042D1CD06A
:10262000062D1CBFBDEC028B70BD53EC182B51EC7A
:10263000100BFDF7B7FE94ED0A1B53EC112BFDF7C1
:102640000AFE53EC182BFDF7ADFE94ED081B53EC7E
:10265000112BFDF700FE41EC100B53EC182B51EC45
:10266000100BFDF79FFE94ED061B53EC112BFDF7AD
:10267000F2FD53EC182BFDF795FE94ED040B53EC93
:10268000102BFDF7E8FD41EC100B53EC182B51EC2F
:10269000100BFDF787FE94ED021B53EC112BFDF799
:1026A000DAFD53EC182BFDF77DFE94ED001B53EC87
:1026B000112BFDF7D0FDBDEC028B41EC100B70BD72
:1026C00031B504462DED040B2DED0A8BB0EE41BA69
:1026D000F0EE61BA0B989DED0A0B20F00040B0F1CE
:1026E000795F0DDA51EC100BFFF726FB042808BFC9
:1026F00000F09AF89DED0A0BBDEC0A8B05B030BDD9
:1027000053EC102B51EC100BFDF74CFE41EC180B69
:102710009DED0A0B53EC182B51EC100BFDF742FE0C
:1027200041EC190B2C48B0EE480AF0EE680A05217E
:102730007844FFF749FF9FED2ACBB0EE40AAF0EEB8
:1027400060AA9CB353EC1C2B51EC190BFDF72AFE2D
:1027500041EC1C0B53EC1A2B51EC190BFDF722FE2C
:102760009FED210B41EC190B53EC102B51EC1B0B83
:10277000FDF718FE53EC192BFDF70EFE53EC182B4A
:10278000FDF710FE53EC1B2BFDF706FE53EC1C2B44
:10279000FDF702FE9DED0A1B53EC112BFDF7FFFD2B
:1027A000BDEC0A8B05B041EC100B30BDFFE753ECDC
:1027B0001A2B51EC180BFDF7F5FD53EC1C2BFDF714
:1027C0004AFD53EC192BFDF7EDFD9DED0A1B53EC73
:1027D000112BFDF740FDE3E7AC0E00000000000008
:1027E000495555555555C5BF000000000000E03F54
:1027F00010B553EC102B51EC100BFDF72CFD41ECF8
:10280000100B10BD000000009FED050B10B553EC40
:10281000102B51EC100BFDF741FF41EC100B10BDDC
:1028200000000000000000009FED050B10B553EC08
:10283000102B51EC100BFDF7B5FD41EC100B10BD4A
:10284000000000000000001002E008C8121F08C1CC
:10285000002AFAD170477047002001E001C1121F21
:10286000002AFBD170470000014908607047000052
:10287000140000202DE9FF5F82B00021DDE9043063
:10288000020DDDF840B0034318D044F61050A2F218
:10289000FF3242431514119801281FD0A5EB0B00FD
:1028A000401C5FEA000A4FF000064E4FDFF83891F7
:1028B000B046504615D5CAF1000413E01198012422
:1028C0004AA3012801D16FEA0B010298119AC0E9CD
:1028D0000031C0E9024206B0BDE8F09FCBF1000034
:1028E000DFE704460021404A491842EB0450CDE995
:1028F000001012E0E00707D032463B46404649460A
:10290000FDF750FD8046894632463B461046194643
:10291000FDF748FD06460F466410002CEAD1DDE9BC
:102920000401DDE90023BAF1000F06DAFDF73AFDF4
:1029300042464B46FDF736FD05E0FDF7AFFE424649
:102940004B46FDF7ABFE04460E460022284BFDF732
:102950006FFF03D84FF0FF30014607E00022254B00
:1029600020463146FDF777FCFDF74AFF102409E0C9
:10297000002C0ADB0A220023FDF72AFC039B3032DD
:102980001A55641E50EA0102F2D1641C039AC4F184
:1029900011031444119A012A03D0012208430DD1D6
:1029A0000AE0084304D000204FF0110B119072E7A9
:1029B000A3EB0B056D1E0DE05B4504DD4FF000023F
:1029C00005F1010504E003DA4FF00002A5F101056D
:1029D000002AECD002981199C0E90231C0E9004503
:1029E00079E70000000014400000F03F30000000D4
:1029F0000000F0430000E03F10B510EE100AFDF7B4
:102A000043FD41EC100B9FED0A1BFFF721FA51EC3F
:102A1000100BFDF74CFD00EE100AB5EEC00AF1EE0A
:102A200010FA03DADFED040A30EE200A10BD0000D0
:102A300000000060FB211940DB0FC9402DE9FF4F6A
:102A400095B09A46884606460025EEE1252877D1BE
:102A500000242746F94A0121039400E0044316F8B4
:102A6000013F203B01FA03F01042F7D130782A28C9
:102A700011D06FF02F033078A0F13002092A16D858
:102A8000039A44F0020402EB820203EB4202104478
:102A9000761C0390EFE758F8042B0392002A03DA20
:102AA000504244F40054039044F00204761C307801
:102AB0002E2816D116F8010F44F004042A280DD050
:102AC0006FF02F023078A0F13003092B09D807EB03
:102AD000870302EB4303C718761CF3E758F8047B1F
:102AE000761C30786C280FD006DC4C2817D068286C
:102AF0000DD06A2814D104E0742810D07A280FD1A0
:102B00000DE044F400140AE044F4801401E044F4BD
:102B100040147278824202D104F58014761C761C2F
:102B2000307866280BD013DC582877D009DC0028D1
:102B300075D04528F6D04628F4D047281AD193E11D
:102B400018E0632835D0642879D0652812D18BE14C
:102B5000702873D008DC6728F1D069286FD06E2800
:102B60000DD06F2806D1ACE073282CD0752874D016
:102B7000782853D05246179990476D1C54E1C4F3FE
:102B80000250022809D003280DD0D8F800100428DC
:102B90000DD00D6008F1040846E1D8F80010EA17DE
:102BA000C1E90052F6E7D8F800100D80F2E70D7089
:102BB000F0E718F8041B8DF8001000208DF80100D4
:102BC000EB46012003E058F804BB4FF0FF306107EB
:102BD0004FF0000102D40DE009F101018946B9422C
:102BE0000FDA8145F8DB1BF809100029F4D108E061
:102BF00009F1010189468142FADB1BF8091000291D
:102C0000F6D103985346A0EB090721463846179A98
:102C100000F080FA284400EB090507E044E008E1F1
:102C20000DE01BF8010B524617999047B9F10109C5
:102C3000F7D2534621463846179AF2E039E00A2186
:102C4000C4F302524FF0000B0091022A06D058F84C
:102C5000040BC117032A09D00AE023E008F107009A
:102C600020F00702F2E80201904605E000B2C11729
:102C7000042A01D140B2C117002906DA0A46002110
:102C8000404261EB02012D2202E0220504D52B22F5
:102C90008DF80420012203E0E20701D02022F7E7AB
:102CA000914657E00A2100E010214FF0000B0091FF
:102CB0000BE010214FF0000B44F0040408270091B2
:102CC00003E008204FF0000B0090C4F30252022AE8
:102CD00005D058F8040B0021032A08D008E008F1B9
:102CE000070020F00702F2E80201904603E080B2FC
:102CF000042A00D1C0B24FF0000922072AD5327849
:102D0000702A07D0DDF800C08CF0100C5CEA0B0CC8
:102D100005D00EE040228DF80420012208E050EAA0
:102D2000010306D030238DF804308DF805200222EF
:102D30009146009B83F0080353EA0B030AD150EA43
:102D4000010201D1620705D530228DF804204FF031
:102D500001097F1E3278582A04D039A20C920CAA9D
:102D600002920BE03BA2F9E75B46009AFDF730FACE
:102D70000C9B9B5C029A521E0292137050EA010255
:102D8000F2D1029804A9081A00F1200B600702D5BD
:102D900024F4803400E001275F4502DDA7EB0B003F
:102DA00000E0002000EB0B01009003984944401A1A
:102DB0000390E00306D453462146179A039800F087
:102DC000A9F90544002706E001A85246C05D1799FD
:102DD00090476D1C7F1C4F45F6DBE0030CD5534636
:102DE0002146179A039800F095F9054404E0302035
:102DF0005246179990476D1C0099481E0090002973
:102E0000F5DC08E00298029952460078491C0291CC
:102E1000179990476D1CBBF10001ABF1010BF1DC80
:102E20005BE100F065F90544761C307800287FF4FA
:102E30000DAE19B02846BDE8F08F0000092801004A
:102E40003031323334353637383961626364656620
:102E500000000000303132333435363738394142E2
:102E60004344454600000000600700D4062708F1EF
:102E7000070020F00700F0E80223804603F0004C32
:102E80005FEA0C0001D097A009E0200501D596A0CB
:102E900005E0E00701D095A001E0AFF24C001390EF
:102EA000307823F0004365280CD006DC452809D093
:102EB00046281DD047287FD13BE0662818D06728D8
:102EC0007AD136E00021112F01DB112000E0781CBF
:102ED000CDE9000104A90CA8FFF7CCFCDDE90D0148
:102EE0000C9A4FF0000B07F10109109200914EE08F
:102EF0004FF000400097CDE9011004A90CA8FFF79E
:102F0000B9FCDDE90D020C9B0F994FF0000B9146C7
:102F10001093009211B9791C00EB0109B7EB09007D
:102F200003D4C0F1FF3B07F10109A9EB07000190B1
:102F300042E0012F00DA01270021112F01DD1120CD
:102F400000E03846CDE9000104A90CA8FFF792FC87
:102F5000DDE90D010C9A00914FF0000BB94610927B
:102F600021070FD4009A4A4503DA914601E0A9F1FE
:102F70000109B9F1010F05DD109AA9F10101515CB8
:102F80003029F4D0B84202DA10F1040F03DA01213B
:102F9000CDE9011010E0002803DC8344A9EB000117
:102FA00002E0411C494500DD8946A0EB0B00401CB6
:102FB00001904FF000400290200705D40198484549
:102FC00002DB4FF0FF30019000208DF84B0002989B
:102FD0000DF14B07B0F1004F25D002200C902B20B3
:102FE0000D90029800280CDA404202902D200D909E
:102FF00007E00A210298FDF776FA3031029007F8CF
:10300000011D0C99481E0C900029F2DC0298002842
:10301000EFD1791E0D980870307800F0200040F054
:10302000450007F8020D11A8C01BC01D029013989F
:10303000007800B1012000EB0901019801EBE0717B
:10304000029801440398401A401E0390E00306D4FE
:1030500053462146179A039800F05CF805441398EC
:10306000007818B15246179990476D1CE00323D59C
:1030700053462146179A039800F04CF805441BE08C
:10308000BBF1000F07DB0098584504DD1098179935
:1030900010F80B0001E01799302052469047019834
:1030A0000BF1010B401E05F10105019004D12E200A
:1030B0005246179990476D1CB9F10001A9F1010919
:1030C000DEDC05E017F8010B5246179990476D1C9E
:1030D0000299481E02900029F4DC53462146179AB3
:1030E00003989EE62D0000002B0000002000000049
:1030F0002DE9F041044600251E461746880404D4F5
:1031000005E039462020B0476D1C641EF9D52846DD
:10311000BDE8F0812DE9F041044600251E469046A9
:10312000C80301D5302700E02027880404D505E036
:1031300041463846B0476D1C641EF9D52846BDE8A7
:10314000F08182B0CDE9000121F0004001909DEDB9
:10315000000B02B051EC100B7047000013B5642354
:10316000012269460248FEF785FA00981CBD00005E
:10317000600000202DED048BFDF7C4FCFEF784FBFE
:10318000FEF7D2FAFEF7EEFAFEF74AFBFEF766FB11
:10319000DFED0C8A0C4D9FED0D9A00BFB0EE688AF2
:1031A0004FEA0504B0EE481AF0EE680AB1EE080ADC
:1031B00000F00EF838EE098A18EE100AA042F1DB92
:1031C000ECE7000000000000DB0FC940CDCC8C3ED6
:1031D000F0B52DED0C8BB0EE40BA85B0F0EE60AAE4
:1031E000B7EE008AB0EE410AFFF706FC10EE104A77
:1031F0002046FDF749F941EC100BFEF7C5FDB0EE96
:1032000040CAF0EE60CA1AEE900AFDF73DF953ECA1
:103210001C2BFDF7C7F841EC1D0B2046FDF734F9D8
:1032200041EC100BFEF798FEB0EE40CAB1EE4B0A2F
:10323000F0EE60CA10EE100AFDF726F953EC1C2BD5
:10324000FDF7B0F853EC1D2BFDF705F8FDF72FF94E
:103250000AEE100A2046FDF717F941EC100BFEF7B5
:103260007BFEB0EE40CAF0EE60CA1AEE900AFDF79F
:103270000BF953EC1C2BFDF795F841EC1C0B204689
:10328000FDF702F941EC100BFEF77EFDB0EE40DADF
:10329000F0EE60DA1BEE100AFDF7F6F853EC1D2B8A
:1032A000FDF780F853EC1C2BFCF7D5FFFDF7FFF87A
:1032B00000EE100A9FED7C2A20EE021ADFED7B0A59
:1032C000F6EE001A6AEE200A40EE610A60EE820A0B
:1032D000DFED772AB5EEC01A6AEE222A40EE612AA7
:1032E00022EE820AF1EE10FA01DD012000E000205A
:1032F000F5EEC00AF1EE10FA01DD012100E0002137
:10330000B5EEC00A00EB4101F1EE10FA01DD01203B
:1033100000E0002001EB800007281ED2DFE800F06B
:10332000A71E8A04543C720030EE810AB4EEC80A2B
:10333000F1EE10FA05DD88EE002A60EE820A21EE39
:10334000021A38EE600A30EE410A20EE219A30EE81
:10335000810A71EE098A70EE099A88E0F1EE600A3E
:10336000B1EE400A30EE801AB4EEC81AF1EE10FA4F
:1033700005DD88EE012A60EE820A20EE020A38EEB0
:10338000601A31EE401A21EE219A70EE099A30EE61
:10339000800A70EE098A6AE071EE000AF4EEC80A4B
:1033A000F1EE10FA05DD88EE202A21EE021A20EE59
:1033B000020A78EE410A70EEC00A60EEA19A71EE40
:1033C000000A70EEA98A1AE0B1EE411AB1EE600A65
:1033D00071EE000AF4EEC80AF1EE10FA05DD88EE8F
:1033E000202A21EE021A20EE020A78EE410A70EE3F
:1033F000C00A60EEA19A70EE298A31EE000A30EE22
:10340000299A34E030EE201AB4EEC81AF1EE10FA20
:1034100005DD88EE012A20EE020A60EE820A38EE0F
:10342000401A30EE200A31EE601A61EE218A70EE09
:10343000A89A1AE0F1EE400AB1EE410A30EE801A85
:10344000B4EEC81AF1EE10FA05DD88EE012A60EE3E
:10345000820A20EE020A38EE601A70EE800A31EE1F
:10346000401A61EE218A70EEA89A30EE289A19EE81
:10347000100AFDF709F806460F4618EE900AFDF708
:1034800003F804460D4619EE900AFCF7FDFF8DE89F
:10349000F00041EC100B07A053EC102BFEF73CFCA6
:1034A00005B0BDEC0C8BF0BDAC080F3ED7B35D3F53
:1034B000D7B35DBF5B54612C54622C54635D3A25D5
:1034C000662C25662C25660D0A0000000000000011
:1034D00000000000010203040607080900000000C4
:1034E00001020304000000004C5555555555A53FF9
:1034F0007751C1166CC156BF9015CB19A001FA3E89
:10350000AD529C804F7E92BEC4B1B4BD9EEE213EB2
:10351000D43888BEE9FAA8BD00004054FB21F93F29
:103520003163621A61B4D03D0000601A61B4D03DCD
:103530007370032E8A19A33B0000002E8A19A33B47
:10354000C14920259A837B3900000000000000005B
:103550006E83F9A22915444ED15727FCC0DD34F5FE
:10356000999562DB4190433CAB6351FE61C5BBDE84
:103570003A6E24B7E0D24D42EA2E49061C92D10998
:103580001CEB1DFE3EA729B1F53582E88444BB2E15
:1035900026709CE9417E5FB439D69139F439538362
:1035A0008B5F849C3B28F9BDFF97F81F0F9805DEC1
:1035B0008B112FEF1F6D0A5ACF7E366DB709CB27BF
:1035C000663F464F2DEA5F9EC7BA27757BF1E5EB54
:1035D000F739073DEA92528AB15FFB6B085D8D1F98
:1035E000A6F810111111813FD561C119A0012ABFA0
:1035F0007DFEB157E31DC73EEB9C2B8AE6E55ABE24
:103600007CD5CF5A3AD9E53D283600080000002085
:103610001800000048280008403600081800002064
:10362000900400005828000801000000100000006D
:10363000000000000024F400000000000000000072
:040000050800019559
:00000001FF
